:1000000014C02EC02DC02CC02BC02AC029C028C0AF
:1000100027C026C025C024C023C022C021C020C0C4
:100020001FC01EC01DC01CC01BC011241FBECFE5B9
:10003000D1E0DEBFCDBF11E0A0E6B0E0ECEFF3E031
:1000400002C005900D92AE34B107D9F721E0AEE4BD
:10005000B1E001C01D92A035B207E1F7C1D1CCC11A
:10006000CFCF1616170674F4FC01680F791F919113
:1000700098BB83EF91E00197F1F700C00000E6170D
:10008000F707A9F70895813461F488E090E0909330
:100090004F0180934E0168E070E089E391E0E1DF79
:1000A00077C1823461F488E090E090934F018093AF
:1000B0004E0168E070E081E391E0D3DF69C18334F1
:1000C00061F488E090E090934F0180934E0168E0E6
:1000D00070E089E291E0C5DF5BC1843461F488E0BF
:1000E00090E090934F0180934E0168E070E081E2D0
:1000F00091E0B7DF4DC1853461F488E090E09093E2
:100100004F0180934E0168E070E089E191E0A9DF42
:100110003FC1863461F488E090E090934F01809372
:100120004E0168E070E081E191E09BDF31C18734EE
:1001300061F488E090E090934F0180934E0168E075
:1001400070E089E091E08DDF23C1883461F488E0BC
:1001500090E090934F0180934E0168E070E081E061
:1001600091E07FDF15C1893461F488E090E09093DD
:100170004F0180934E0168E070E089EF90E071DFFD
:1001800007C18A3461F488E090E090934F01809336
:100190004E0168E070E081EF90E063DFF9C08B34DE
:1001A00061F488E090E090934F0180934E0168E005
:1001B00070E089EE90E055DFEBC08C3461F488E0AC
:1001C00090E090934F0180934E0168E070E081EEE3
:1001D00090E047DFDDC08D3461F488E090E09093DB
:1001E0004F0180934E0168E070E089ED90E039DFC7
:1001F000CFC08E3461F488E090E090934F018093FB
:100200004E0168E070E081ED90E02BDFC1C08F34DB
:1002100061F488E090E090934F0180934E0168E094
:1002200070E089EC90E01DDFB3C0803561F488E0B8
:1002300090E090934F0180934E0168E070E081EC74
:1002400090E00FDFA5C0813561F488E090E09093E5
:100250004F0180934E0168E070E089EB90E001DF90
:1002600097C0823561F488E090E090934F018093CD
:100270004E0168E070E081EB90E0F3DE89C08335E9
:1002800061F488E090E090934F0180934E0168E024
:1002900070E089EA90E0E5DE7BC0843561F488E0B7
:1002A00090E090934F0180934E0168E070E081EA06
:1002B00090E0D7DE6DC0853561F488E090E09093E2
:1002C0004F0180934E0168E070E089E990E0C9DE5B
:1002D0005FC0863561F488E090E090934F01809391
:1002E0004E0168E070E081E990E0BBDE51C08735E7
:1002F00061F488E090E090934F0180934E0168E0B4
:1003000070E089E890E0ADDE43C0883561F488E0B4
:1003100090E090934F0180934E0168E070E081E897
:1003200090E09FDE35C0893561F488E090E09093DD
:100330004F0180934E0168E070E089E790E091DE24
:1003400027C08A3561F488E090E090934F01809354
:100350004E0168E070E081E790E083DE19C08034F0
:1003600061F489E090E090934F0180934E0169E041
:1003700070E088E690E075DE0BC088E090E0909336
:100380004F0180934E0168E070E080E690E069DE06
:1003900018BA83EC99E00197F1F700C000000895C6
:1003A000EF92FF920F931F93CF93DF938C017C0109
:1003B000C0E0D0E0F70181917F0165DE2196F80170
:1003C00001900020E9F73197E01BF10BEC17FD07D6
:1003D00088F7DF91CF911F910F91FF90EF900895D3
:1003E00087B38FEF87BB81E491E0DADF80E44BDEF7
:0C03F00087E491E0D5DFF7CFF894FFCF51
:1003FC00FFFFFFFFFFFFFFFF7088844221428488CC
:10040C0070C1C3D7DFFBEBC38380C0603C3C60C0D2
:10041C008081C3663C3C66C381F80F0FF8F80F0F60
:10042C00F8E03C0E03030E3CE0FCFE03030303FE6A
:10043C00FCC0C0C0FFFFC0C0C02476D39999CB6E5E
:10044C0024FFFFC8C8CCCE7B313C7EC3C3C3C77E60
:10045C003FFFFF88888888F8703C7EC3C3C3C37E87
:10046C003CFFFF30180C06FFFF1FF8F81F1FF8F8B1
:10047C001FFFFF030303030303FFFF183C66C38145
:10048C0081C6C7C3C3FFFEC0C0C3C3C3FFFFC3C382
:10049C00C3FFFF18181818FFFF3C7EC3C3C3CB6FF4
:1004AC002FFF98989898989880FF9999999999996D
:1004BC0081FFFFC3C3C3667E183C7EC3C3C3C36640
:1004CC0066FFFF99999999FF66071C709090701CB4
:0E04DC0007414C4C454E00444F52495300001E
:00000001FF
