:1000000012C021C020C01FC01EC01DC01CC01BC00C
:100010001AC019C018C017C016C015C014C013C02C
:1000200012C011C010C011241FBECFE5D1E0DEBF49
:10003000CDBF20E0A0E6B0E001C01D92A036B2071F
:10004000E1F71CD16AC1DCCF87B3866487BBB8985F
:10005000C09A80E18DB908958FB988E021E193E1DC
:100060002DB99DB98150E1F78FB10895EF92FF92BC
:100070000F931F93CF93DF93C69882E5EDDF80E067
:10008000EBDF80E0E9DF89E9E7DF8AEBE5DF8FEF8F
:10009000E3DFC4E6D0E002C0219751F08FEFDCDF50
:1000A0008111FACFC4E6D0E005C0219719F409C048
:1000B000C4E6D0E08FEFD0DF8E3FB9F7CAE3D0E0DF
:1000C00002C0CAE3D0E08FEFC7DF2197E1F7C6ECAB
:1000D000D0E08FEFC1DF8BBB8DE98A95F1F700008F
:1000E0002197B9F7C0E0D1E08FEFB6DF8BBB8DE988
:1000F0008A95F1F700002197B9F7C2E3D0E002C07A
:10010000219741F18FEFA8DF8E3FD1F70FE910E083
:1001100023C08FEFA1DF8BBB8DE98A95F1F700003B
:100120002197B9F7CE2DDF2D8FEF96DF8BBB8DE9B1
:100130008A95F1F700002197B9F7C2E3D0E002C039
:10014000219721F08FEF88DF8E3FD1F70150110901
:1001500031F408C00FE910E0E12CFF24F394CE2D18
:10016000DF2DD7CFC0E0D1E08FEF76DF8BBB8DE9FD
:100170008A95F1F700002197B9F7C2E3D0E002C0F9
:10018000219721F08FEF68DF8E3FD1F78FEF64DF8B
:100190008FEF62DFC69ADF91CF911F910F91FF9091
:1001A000EF9008958F929F92AF92BF92CF92DF927D
:1001B000EF92FF920F931F93CF93DF93CDB7DEB7EC
:1001C000A8970FB6F894DEBF0FBECDBFE42ED52E94
:1001D000C62EB72EF22EC6983FDF8B2D3DDF8C2D1D
:1001E0003BDF8D2D39DF8E2D37DF8F2D35DF680119
:1001F000E12CF12CC114D104E104F104D9F08E01F9
:100200000F5F1F4F812C912C54018FEF25DF90E061
:10021000A0E0B0E0F80181939193A193B1938F0195
:10022000FFEF8F1A9F0AAF0ABF0A8C149D04AE0419
:10023000BF0459F7898189A38D818AA389858BA3FE
:100240008D858CA389898DA38D898EA3898D8FA39C
:100250008D8D88A7C69AA8960FB6F894DEBF0FBEFC
:10026000CDBFDF91CF911F910F91FF90EF90DF9065
:10027000CF90BF90AF909F908F9008958FEF8ABBE3
:10028000E3DE0F2EFAE0EF2EF02DF12CC69ACE2DE4
:10029000DF2D8FEFE1DE2197E1F708E010E025E99F
:1002A00040E050E0BA0180E47DDF27E84AEA51E00F
:1002B00060E070E088E476DF2FEF40E050E0BA01C4
:1002C0008AE770DF25E640E050E0BA0187E76ADFA1
:1002D0002FE540E050E060E070E489E663DF25E66A
:1002E00040E050E0BA0187E75DDF2FEF40E050E0EB
:1002F00060E070E489E656DF2FEF40E050E0BA019D
:100300008AE750DFB3DE9FEF21E18AE7915020407A
:0E0310008040E1F700C00000B9CFF894FFCFA5
:00000001FF
