:1000000014C02EC02DC02CC02BC02AC029C028C0AF
:1000100027C026C025C024C023C022C021C020C0C4
:100020001FC01EC01DC01CC01BC011241FBECFE5B9
:10003000D1E0DEBFCDBF11E0A0E6B0E0EAECF3E036
:1000400002C005900D92AE34B107D9F721E0AEE4BD
:10005000B1E001C01D92A035B207E1F7A8D1B3C14C
:10006000CFCFFC019F01281B390B2617370764F4FB
:10007000219128BB2FE33DE043E021503040404038
:10008000E1F700C00000EECF0895813459F488E014
:1000900090E090934F0180934E0168E070E089E317
:1000A00091E05CC1823459F488E090E090934F0174
:1000B00080934E0168E070E081E391E04FC18334AA
:1000C00059F488E090E090934F0180934E0168E0EE
:1000D00070E089E291E042C1843459F488E090E014
:1000E00090934F0180934E0168E070E081E291E0CF
:1000F00035C1853459F488E090E090934F018093A6
:100100004E0168E070E089E191E028C1863459F43D
:1001100088E090E090934F0180934E0168E070E09A
:1001200081E191E01BC1873459F488E090E090931D
:100130004F0180934E0168E070E089E091E00EC1CC
:10014000883459F488E090E090934F0180934E01F9
:1001500068E070E081E091E001C1893459F488E001
:1001600090E090934F0180934E0168E070E089EF3A
:1001700090E0F4C08A3459F488E090E090934F0105
:1001800080934E0168E070E081EF90E0E7C08B342F
:1001900059F488E090E090934F0180934E0168E01D
:1001A00070E089EE90E0DAC08C3459F488E090E099
:1001B00090934F0180934E0168E070E081EE90E0F3
:1001C000CDC08D3459F488E090E090934F01809336
:1001D0004E0168E070E089ED90E0C0C08E3459F4C3
:1001E00088E090E090934F0180934E0168E070E0CA
:1001F00081ED90E0B3C08F3459F488E090E09093A3
:100200004F0180934E0168E070E089EC90E0A6C059
:10021000803559F488E090E090934F0180934E012F
:1002200068E070E081EC90E099C0813559F488E095
:1002300090E090934F0180934E0168E070E089EB6D
:1002400090E08CC0823559F488E090E090934F01A3
:1002500080934E0168E070E081EB90E07FC08335D1
:1002600059F488E090E090934F0180934E0168E04C
:1002700070E089EA90E072C0843559F488E090E03B
:1002800090934F0180934E0168E070E081EA90E026
:1002900065C0853559F488E090E090934F018093D4
:1002A0004E0168E070E089E990E058C0863559F465
:1002B00088E090E090934F0180934E0168E070E0F9
:1002C00081E990E04BC0873559F488E090E0909345
:1002D0004F0180934E0168E070E089E890E03EC0F5
:1002E000883559F488E090E090934F0180934E0157
:1002F00068E070E081E890E031C0893559F488E029
:1003000090E090934F0180934E0168E070E089E7A0
:1003100090E024C08A3559F488E090E090934F0132
:1003200080934E0168E070E081E790E017C0803470
:1003300059F489E090E090934F0180934E0169E079
:1003400070E088E690E00AC088E090E090934F016A
:1003500080934E0168E070E080E690E082DE18BA9B
:100360002FEF84E39CE0215080409040E1F700C0F3
:10037000000008950F931F93CF93DF93EC018C013E
:10038000FE0101900020E9F73197EC1BFD0BC8013D
:100390008C1B9D0BE817F90728F0F80181918F015C
:1003A00074DEEECFDF91CF911F910F91089587B347
:1003B0008FEF87BB81E491E0DDDF80E466DE87E4D8
:0A03C00091E0D8DFF7CFF894FFCFEB
:1003CA00FFFFFFFFFFFFFFFF7088844221428488FE
:1003DA0070C1C3D7DFFBEBC38380C0603C3C60C005
:1003EA008081C3663C3C66C381F80F0FF8F80F0F93
:1003FA00F8E03C0E03030E3CE0FCFE03030303FE9D
:10040A00FCC0C0C0FFFFC0C0C02476D39999CB6E90
:10041A0024FFFFC8C8CCCE7B313C7EC3C3C3C77E92
:10042A003FFFFF88888888F8703C7EC3C3C3C37EB9
:10043A003CFFFF30180C06FFFF1FF8F81F1FF8F8E3
:10044A001FFFFF030303030303FFFF183C66C38177
:10045A0081C6C7C3C3FFFEC0C0C3C3C3FFFFC3C3B4
:10046A00C3FFFF18181818FFFF3C7EC3C3C3CB6F26
:10047A002FFF98989898989880FF9999999999999F
:10048A0081FFFFC3C3C3667E183C7EC3C3C3C36672
:10049A0066FFFF99999999FF66071C709090701CE6
:0E04AA0007414C4C454E00444F524953000050
:00000001FF
