S02B000054656D706572617475726520616E642048756D696469747920446973706C6179206F6E204C43442E72
S113000019C033C032C031C030C02FC02EC02DC083
S11300102CC02BC02AC029C028C027C026C025C098
S113002024C023C022C021C020C01FC01EC01DC0C8
S11300301CC01BC011241FBECFEFD2E0DEBFCDBF5A
S113004011E0A0E0B1E0EEECF5E002C005900D9205
S1130050A238B107D9F721E0A2E8B1E001C01D92AE
S1130060A63BB207E1F766D2B0C2CACF439A8BB9B6
S1130070459881EE94E00197F1F700C000004398A1
S113008081EE94E00197F1F700C00000439A0895CF
S1130090439A8BB9459A89EF90E00197F1F700C034
S11300A00000439889EF90E00197F1F700C0000049
S11300B0439A08950F931F93CF93DF93883080F46E
S11300C08B01880F880F880F805CD0DFE801085F00
S11300D01F4F8991DDDFC017D107D9F780E8C6DF4C
S11300E0DF91CF911F910F9108958FEF8AB987B156
S11300F0886287B9439A60E571E080E0DBDF88E3DA
S1130100B5DF8CE0B3DF81E0B1DF0895CF93DF93F7
S1130110EC0180E8ABDF8881882329F02196B8DFE1
S113012089918111FCCFDF91CF910895CF93DF9313
S1130130EC0180EC9BDF8881882329F02196A8DFDD
S113014089918111FCCFDF91CF9108950F931F9373
S1130150CF93DF938C01EB0181E088DFC801D6DF08
S1130160CE01E4DFDF91CF911F910F9108950F939A
S11301701F93CF93DF9320E1829FC0011124805FFE
S11301809E4FC4DF80918301882379F000EB11E056
S1130190C0E0D0E0F80181918F017ADF219680914F
S11301A0830190E08C179D07A9F780E091E0BEDF02
S11301B0DF91CF911F910F91089522982A98089565
S11301C0229A2A9808952FE38DE093E021508040ED
S11301D09040E1F700C00000F0DF89EF90E0019764
S11301E0F1F700C00000ECDF89EF90E00197F1F730
S11301F000C00000E2DF9DE09A95F1F70000109244
S1130200850010928400E4E8F0E005C080819181CB
S113021081359105B8F41A99F9CF1092850010929E
S11302208400E4E8F0E005C020813181213A310501
S113023050F493B1892F847092FFF6CF1A99FECFB0
S113024081E0089580E00895AC01485D5F4FE4E8E3
S1130250F0E061E01A9BFECF1182108205C020817C
S11302603181283E334090F41A99F9CF20813181AD
S11302702333310518F0DC016C9302C0DC011C92BD
S113028001968417950731F781E0089580E0089579
S1130290CF93DF9398DF882309F432C188E891E093
S11302A0D3DF882309F426C1E8E8F1E068E971E0C6
S11302B02FE030E040E050E0819190E0022E02C057
S11302C0880F991F0A94E2F7482B592B21503109C2
S11302D0E617F70789F71AC1819190E0022E02C050
S11302E0880F991F0A94E2F7682B792B2150310962
S11302F0EA17FB0789F713C1819190E0022E02C02F
S1130300880F991F0A94E2F7A82B21503109EC17A2
S1130310FD0791F7852F840F860F870FA81314C04C
S1130320509385014093840177234CF47F77709335
S113033087016093860181E0809382010FC07093EE
S11303408701609386010AC010928701109286018A
S113035010928501109284011092820140918401CF
S1130360509185014436510580F09A0136952795C0
S113037036952795ABE7B4E11CD196958795805DBA
S113038080930A01E1E0F0E002C0E0E0F0E04A30EE
S1130390510518F1EF01C050DF4F9A0136952795AA
S11303A036952795ABE7B4E104D19695879564E635
S11303B0689F9001699F300D1124CA01821B930B21
S11303C09C01ADECBCECF5D09695879596958795F8
S11303D096958795805D8A873196E050FF4F8EE22F
S11303E082879A01ADECBCECE4D0969587959695FE
S11303F08795969587959C01220F331F880F991F27
S1130400880F991F880F991F820F931F481B590B40
S1130410405D438785E28487158680918201882325
S113042031F08DE28093B001E1E0F0E002C0E0E061
S1130430F0E040918601509187014436510580F0E7
S1130440EF01C055DE4F9A013695279536952795CD
S1130450ABE7B4E1AED096958795805D88833196FD
S11304604A30510518F1EF01C055DE4F9A01369517
S1130470279536952795ABE7B4E19BD0969587955C
S113048064E6689F9001699F300D1124CA01821BA4
S1130490930B9C01ADECBCEC8CD09695879596950E
S11304A0879596958795805D88833196EF01C05531
S11304B0DE4F8EE288839A01ADECBCEC7AD096953F
S11304C0879596958795969587959C01220F331F5E
S11304D0880F991F880F991F880F991F280F391F9C
S11304E0421B530B405D49831A8283E08E0F809335
S11304F083011DC060E871E088E591E027DE17C044
S113050060E871E083E691E021DE11C0E8E9F1E002
S1130510A8EAB1E02FE030E060E070E0DDCEE8EA88
S1130520F1E0C0EBD1E027E030E0A0E0E5CEDF91E0
S1130530CF910895279A2F9AD8DD3FDEE1E8F0E0C5
S11305408081816080832F9860E871E081E791E089
S1130550FDDD2FE38DE093E0215080409040E1F7F2
S113056000C0000095DEC0E0D0E001E010E001C072
S11305708FDEC430D1057CF48C2FF9DD2FE38DE0C0
S113058093E0215080409040E1F700C000002196A4
S1130590C0FFEFCFEDCF80E0EADD8FE39DE023E005
S11305A0815090402040E1F700C00000C02FD12FBF
S11305B0DFCFA29FB001B39FC001A39F01D0B29F20
S11105C0700D811D1124911D0895F894FFCF34
S11305CE48756D69646974793A2000000000000072
S11305DE54656D70657261743A200000000000006D
S11305EE656D7065726174753A200000000000003C
S11305FE6D706572617475723A200000000000001F
S113060E70657261747572653A2000000000000016
S113061E0814080609080906446174612057726FAC
S113062E6E670044485420496E6974204661696CB3
S113063E00496E697469616C697A696E672E2E2E33
S105064E0000A6
S9030000FC
