S02B000054656D706572617475726520616E642048756D696469747920446973706C6179206F6E204C43442E72
S113000019C033C032C031C030C02FC02EC02DC083
S11300102CC02BC02AC029C028C027C026C025C098
S113002024C023C022C021C020C01FC01EC01DC0C8
S11300301CC01BC011241FBECFEFD2E0DEBFCDBF5A
S113004011E0A0E0B1E0E2EAF4E002C005900D9214
S1130050A235B107D9F721E0A2E5B1E001C01D92B4
S1130060AF37B207E1F7EDD11AC2CACF439A8BB9C1
S1130070459881EE94E00197F1F700C000004398A1
S113008081EE94E00197F1F700C00000439A0895CF
S1130090439A8BB9459A89EF90E00197F1F700C034
S11300A00000439889EF90E00197F1F700C0000049
S11300B0439A0895EF92FF920F931F93CF93DF9388
S11300C000D0CDB7DEB7880F880F880F805C6983B6
S11300D07A83CCDF6981E62E7A81F72E8701085F67
S11300E01F4FF70181917F01D3DFE016F106C9F7B5
S11300F080E80F900F90DF91CF911F910F91FF90A7
S1130100EF90B4CF8FEF8AB987B1886287B9439AE9
S113011060E271E080E0CEDF88E3A8DF8CE0A6DF58
S113012081E0A4CFCF92DF92FF920F931F93CF93DE
S1130130DF931F92CDB7DEB7F82E8B0181E0998350
S113014095DF80E893DFCF2C9981D92EF601819138
S11301506F01882311F09CDFF9CF80EC87DF680101
S1130160F60181916F01882311F092DFF9CF0F908E
S1130170DF91CF911F910F91FF90DF90CF90089561
S113018022982A980895229A2A9808952FE38DE0B8
S113019093E0215080409040E1F700C00000F0DF80
S11301A089EF90E00197F1F700C00000ECDF89EFE0
S11301B090E00197F1F700C00000E2DF9DE09A951E
S11301C0F1F7000010928500109284001A9B09C078
S11301D0809184009091850081359105B8F380E089
S11301E0089510928500109284001A9908C0809195
S11301F0840090918500813A9105B8F3F0CF1A9963
S1130200FECF81E008959C01285D3F4F41E01A9B99
S1130210FECF10928500109284001A9B09C0609151
S1130220840070918500683E7340B8F380E00895BF
S11302306091840070918500FC016333710510F0B6
S1130240408301C0108201968217930701F781E071
S11302500895CF93DF939ADF882309F4EBC087E5F1
S113026091E0D1DF882309F4E0C0E7E5F1E020E084
S113027030E040E050E0AFE0B0E0819190E0BD01BB
S1130280641B750B02C0880F991F6A95E2F7282B2F
S1130290392B4F5F5F4F4031510579F780E090E093
S11302A040E150E0AFE1B0E0FA01E95AFE4F60816D
S11302B070E0FD01E41BF50B02C0660F771FEA95A1
S11302C0E2F7862B972B4F5F5F4F4032510561F762
S11302D040E250E0E0E0C7E2D0E0DA01A95ABE4FC4
S11302E06C91DE01A41BB50B01C0660FAA95EAF759
S11302F0E62B4F5F5F4F4832510579F7432F420F8A
S1130300480F490F4E1314C03093540120935301E6
S113031097FF09C09F77909356018093550181E020
S1130320809352010FC090935601809355010AC0E7
S113033010925601109255011092540110925301DB
S11303401092520120915301309154012436310509
S113035050F0C90164E670E08ED0605D60930A01DC
S1130360E1E0F0E005C0E0E0F0E02A30310568F0BB
S1130370EF01C050DF4FC90164E670E07CD06AE051
S113038070E079D0605D6A873196E050FF4F8EE26D
S11303908287C9016AE070E06ED0805D838785E260
S11303A08487158680915201882331F08DE28093F1
S11303B0180121E030E002C020E030E0C091550196
S11303C0D0915601C436D10560F0F901E05FFE4FCB
S11303D0CE0164E670E04FD0605D62872F5F3F4FCF
S11303E003C0CA30D10570F0F901E05FFE4FCE01C1
S11303F064E670E040D06AE070E03DD0605D628702
S11304002F5F3F4FF901E05FFE4F8EE28287CE01FE
S11304106AE070E030D0805D838786E28487158649
S113042060E071E080E191E009C060E571E088E29C
S113043091E004C060E571E083E391E0DF91CF9146
S113044071CE279A2F9A5EDE9BDE809181008160B7
S1130450809381002F9860E571E081E491E062DE91
S1130460F8DE2FE78AE196E0215080409040E1F7E2
S113047000C00000F5CFAA1BBB1B51E107C0AA1F97
S1130480BB1FA617B70710F0A61BB70B881F991F31
S11304905A95A9F780959095BC01CD010895F894DB
S10504A0FFCF88
S11304A248756D69646974793A200000000000009F
S11304B254656D70657261743A200000000000009A
S11304C20814080609080906446174612057726F0A
S11304D26E670044485420496E6974204661696C11
S11304E200496E697469616C697A696E672E2E2E91
S10504F2000004
S9030000FC
